:020000040800F2
:1000000088080020750100087D0100087F010008B4
:10001000810100088301000885010008000000003C
:100020000000000000000000000000008701000840
:10003000890100080000000061090008950A000815
:100040008F0100088F0100088F0100088F01000850
:100050008F0100088F0100088F0100088F01000840
:100060008F0100088F0100088F0100088F01000830
:100070008F0100088F0100088F0100088F01000820
:100080008F0100088F0100088F0100088F01000810
:100090008F0100088F0100088F0100088F01000800
:1000A0008F0100088F0100088F0100088F010008F0
:1000B0008F0100088F010008000000008F01000878
:1000C0008F01000800000000000000008F01000800
:1000D000000000008F0100088F01000800000000F0
:1000E0008F0100088F0100088F01000800F002F85E
:1000F00000F030F80AA090E8000C82448344AAF192
:100100000107DA4501D100F025F8AFF2090EBAE88F
:100110000F0013F0010F18BFFB1A43F0010318473B
:100120007C0B00008C0B000000230024002500261F
:10013000103A28BF78C1FBD8520728BF30C148BF4A
:100140000B6070471FB59DE8030000F0A9F81FBDC4
:1001500010B510BD00F000F91146FFF7F3FF00F0F5
:1001600061FD00F01EF903B4FFF7F2FF03BC00F0DD
:100170004FF900000948804709480047FEE7FEE7BD
:10018000FEE7FEE7FEE7FEE7FEE7FEE7FEE7FEE747
:1001900004480549054A064B704700007D0B0008DE
:1001A000ED00000888020020880800208804002054
:1001B0008804002070B5064600F056F8056806F180
:1001C0000B0020F00704B4429CBF002070BD2B46FA
:1001D0006A68BAB11068A04210D304F108018842DD
:1001E0003CBF5068586007D35168101941601168CE
:1001F000091B016058601460101D70BD13465268E1
:10020000002AE7D12146284600F036F80028DED142
:1002100070BD70B50446051F00F026F80068002C7C
:1002200014BF446870BD002C18BFAC423CBF2046D0
:100230006468F8D301680A18AA4218BF456003D160
:100240002A6805461144016028684119A1421CBF73
:100250006C6070BD6168696021680844286070BD89
:100260007047704770470000004870470800002042
:10027000704770477047704738B504460A460020FB
:100280006946AFF30080002808BF38BD02460099D8
:10029000204600F03FF8012038BD012000F054B89E
:1002A000F8B5AFF30080054600200C46102000BFD3
:1002B0000646A819A0420DD9324669460020AFF380
:1002C0000080070008BF00F03FF80098A04218BF68
:1002D0000546C419FFF7C8FF05600746F01D20F06A
:1002E00007004619284600F00AF8B44208BFF8BDD6
:1002F000A21B31463868BDE8F84000F00BB8002179
:100300000160C0E901107047102070470048704735
:1003100000000020034640688C46002818BF884231
:100320003CBF03464068F8D318681844884207D099
:100330000CF1030020F00700001D411A521A01467B
:10034000081D0A60FFF765BF10B500F039F8BDE879
:10035000104000F02FB870477546FFF7D7FFAE4644
:1003600005006946534620F00700854618B020B5C1
:10037000FFF70EFFBDE820404FF000064FF00007EA
:100380004FF000084FF0000BAC46ACE8C009ACE8F9
:10039000C009ACE8C009ACE8C00921F007018D46EE
:1003A000704710B50446AFF300802046BDE810400A
:1003B000FFF7D9BE002801D000F02AB8704700002E
:1003C00010B5012805D0002103A000F027F8012076
:1003D00010BD09A1F8E7000053494752544D454D5F
:1003E0003A204F7574206F662068656170206D65D6
:1003F0006D6F7279000000003A2048656170206DD1
:10040000656D6F727920636F7272757074656400C8
:1004100001491820ABBEFEE72600020070B5054674
:100420000C460A2000E06D1C00F011F835B1287868
:100430000028F8D102E0641C00F009F814B120781B
:100440000028F8D1BDE870400A20AFF3008008B55D
:1004500069468DF800000320ABBE08BD10B540F61C
:10046000000EC4F2010E41F2000C1028C4F2010C7F
:10047000724604D31F2823D810380EF580626245D7
:1004800027D040F60043C4F201039A4238D07245A7
:1004900077D1C2B2072A4AD84FF47F7202EA8000AD
:1004A0000F22DEF80030824023EA0202CEF800205C
:1004B000DEF8002001FA00F01043CEF8000010BD75
:1004C00041F20002C4F20102302838BF20386245F0
:1004D000D7D1C2B2072A3FD84FF47F7202EA800018
:1004E0000F22DCF80030824023EA0202CCF8002020
:1004F000DCF8002001FA00F01043CCF8000010BD39
:10050000C2B2072A3ED84FF47F7202EA80000F225F
:10051000DEF80034824023EA0202CEF80024DEF83E
:10052000002401FA00F01043CEF8000410BD0F2A99
:1005300027D80838C0B280000F22DEF8043082408D
:1005400023EA0202CEF80420DEF8042001FA00F0CB
:100550001043CEF8040010BD0F2A88BF10BD083824
:10056000C0B280000F22DCF80430824023EA02028D
:10057000CCF80420DCF8042001FA00F01043CCF899
:10058000040010BD0F2AFCD808384FF60443C0B24F
:10059000CFF6FF7380004FF00F0E5CF803400EFAA9
:1005A00000F224EA02024CF803205CF8032001FA6E
:1005B00000F010434CF8030010BD000040F6000CA2
:1005C000C4F2010C102863460ED31F2803D810383C
:1005D0000CF5806308E040F61443C4F2010303F510
:1005E0007B73302838BF2038C0B20F2846D841F27C
:1005F0000002C4F2010293421CD040F60042C4F251
:10060000010293420AD0634538D1012921D0A9BB08
:10061000012101FA00F0CCF81400704701291ED026
:1006200061BB012101FA00F040F61441C4F201015E
:1006300008607047012918D0002918BF70470121B0
:1006400001FA00F040F61441C4F20101C1F80004BF
:100650007047012101FA00F0CCF810007047012129
:1006600001FA00F0CCF810047047012101FA00F003
:1006700040F61441C4F20101C1F8FC0370470000C8
:10068000B0B5054608200C46FFF794FD014600284A
:100690004FF0000008BFB0BD6268486020460D60A2
:1006A000002A18BF101D0160207A6160013020729D
:1006B0000120B0BD2DE9F04F81B0DDE90C98DDE9F6
:1006C0000ABA044614201D4616460F46FFF772FD6F
:1006D0000AEB0901C7800681002221F007014FF0D3
:1006E00080730E270C2604718272C0E9035B41E916
:1006F000046741E90253092308270B250A2441E92D
:100700000C73A1F120034FF0030C4FF0020E0126F1
:1007100041E90A4583E84440042241F814CC41F8F9
:10072000402D072206230527C1E90173CA60016035
:100730004146FFF7A5FF002001B0BDE8F08F0000A3
:10074000FEE7000080B584B084464EF62050CEF21D
:1007500000004FF47F0140F2A40201600020A021BC
:10076000C2F2000240F24173CCE900008CF80800AC
:10077000CDE900020291C0F600030520002101220C
:10078000CDF80CC0FFF796FF04B080BD80B540F2F5
:10079000A1710246C0F60001012000F0ADF880BD55
:1007A0002DE9F04381B0046840F29408C2F20008D9
:1007B0000CB305204FF002090427254605E000BFD1
:1007C000013ACA808F726D68ADB12968CA68002A83
:1007D000F9D0CA88002AF3D10E7981F80A908642AE
:1007E000F1D800F054FA2868C8F8000062B600BFDB
:1007F0002C463046E7E720680189002918BFC180F0
:1008000000F045FA40F29001C2F20001D8F8000071
:10081000096888420AD02068032181724EF604508C
:10082000CEF20000016841F08051016062B600BF65
:1008300001B0BDE8F08300001F2919D802280ED0AE
:10084000012816D0002818BF704741F21402C4F2E4
:10085000020201201368884018431060704741F27B
:100860001402C4F202020120536888401843506009
:10087000704741F21402C4F20202012093688840DA
:10088000184390607047000041F20000C4F202007B
:100890008021016000214160016841F40021016074
:1008A000016841F48031016001688903FCD5416829
:1008B00041F00101416070474EF21000CEF200009D
:1008C00000210160026842F00402026040F2A000D0
:1008D000C2F20000017040F29D00C2F200000170FF
:1008E00040F29F00C2F20000017040F29E00C2F28E
:1008F000000001707047000070B54EF21006CEF295
:100900000006144632680D4622F00201316031685B
:1009100021F0010131600021B1604FF4FA514843E8
:100920000138706000F0B3F940F29E00C2F200009E
:100930000121017062B600BF40F26000C2F2000007
:10094000056040F27400C2F200000460306840F0BC
:1009500002003060306840F00100306070BD00007F
:1009600072B60B49096829B12DE9F00F09490968E8
:10097000C1F800D008490968D1F800D007490968D2
:10098000074A1160BDE8F00F62B67047704700BFBC
:10099000900000209000002094000020940000208F
:1009A0009000002080B5FFF76FFF02200221FFF7C3
:1009B00043FF00200121FFF751FD01200121FFF736
:1009C0004DFDFFF779FF62B600BF80BD80B500F036
:1009D00001F880BD82B041F204000021C4F202009F
:1009E0000191009150F8041C41F4803140F8041C3E
:1009F00050F8041C01F4003100910199013101917A
:100A0000009919B90199B1F5A06FF1D150F8041C02
:100A1000890354BF0021012100910099012936D199
:100A200042F20001C4F202010A6842F010020A60B8
:100A30000A6822F003020A600A6842F002020A60B1
:100A40000168016001680160016841F48061016032
:100A5000016821F47C110160016841F4E811016032
:100A600050F8041C41F0807140F8041C50F8041C3C
:100A70008901FBD5016821F003010160016841F0A3
:100A800002010160016801F00C010829FAD102B0ED
:100A90007047000010B54EF21000CEF20000016861
:100AA00040F29C0421F480310160C2F200042078FD
:100AB00001280CD100F0EBF80020207062B600BFD6
:100AC00040F29800C2F2000001680131016040F27A
:100AD0009E00C2F20000007801280AD140F26000B6
:100AE000C2F20000016840F27400C2F20000006827
:100AF000884740F29F04C2F200042078012810D1F8
:100B000000F0C5F80020207062B600BF40F264001B
:100B1000C2F20000016840F27800C2F200000068F2
:100B2000884740F29D00C2F20000007801280AD1F7
:100B300040F26800C2F20000016840F27C00C2F29C
:100B400000000068884740F2A004C2F20004207848
:100B5000012818BF10BD00F09AF80020207062B67E
:100B600000BF40F26C00C2F20000016840F2800059
:100B7000C2F200000068884710BD000080B541F255
:100B80000000C4F202000168002241F0010101608E
:100B90004168CFF6FF021140416001684FF6FF72D5
:100BA000CFF6F66211400160016821F480210160F6
:100BB000416821F4FE0141604FF41F018160FFF79D
:100BC00005FF4EF60850CEF200004FF000610160C4
:100BD00080BD000040F2700640F28404C2F20006BC
:100BE000C2F20004307880F0010500202946FFF7AA
:100BF000E5FC20463570FFF7D3FDF3E740F27106C0
:100C000040F28404C2F20006C2F20004307880F0A0
:100C1000010501202946FFF7D1FC20463570FFF77A
:100C2000BFFDF3E784B0FFF7BDFE40F28404C2F2DB
:100C300000042046FFF786FD40F24410C2F2000097
:100C4000002640F6D533A025CDE90060C0F60003AC
:100C5000002000214FF47A7202950394FFF72AFDD9
:100C600040F2E410C2F2000040F6FD33CDE900602E
:100C7000C0F60003012040F213114FF47A7202957E
:100C80000394FFF717FD2046FFF780FDFEE7EFF323
:100C9000108000F0010072B670470000AC0C000834
:0C0CA00000000020880800002801000867
:04000005080000ED02
:00000001FF
