:020000040800F2
:10000000100700206D010008750100087701000845
:10001000790100087B0100087D0100080000000054
:100020000000000000000000000000007F01000848
:10003000810100080000000083010008290C00086D
:100040008701000887010008870100088701000870
:1000500087010008870100082902000855020008EE
:1000600081020008AD020008D902000887010008DB
:100070008701000887010008870100088701000840
:100080008701000887010008870100088701000830
:100090008701000887010008870100088701000820
:1000A0008701000887010008870100088701000810
:1000B0008701000887010008870100088701000800
:1000C00087010008870100088701000887010008F0
:1000D00087010008870100088701000887010008E0
:1000E00087010008870100088701000800F002F876
:1000F00000F02CF80AA090E8000C82448344AAF196
:100100000107DA4501D100F021F8AFF2090EBAE893
:100110000F0013F0010F18BFFB1A43F0010318473B
:10012000E40C0000F40C000000230024002500264D
:10013000103A28BF78C1FBD8520728BF30C148BF4A
:100140000B6070471FB51FBD10B510BD00F031F832
:100150001146FFF7F7FF00F007FE00F04FF803B479
:10016000FFF7F2FF03BC00F057F800000948804792
:1001700009480047FEE7FEE7FEE7FEE7FEE7FEE789
:10018000FEE7FEE7FEE7FEE704480549054A064BA1
:1001900070470000110D0008ED000008100100205C
:1001A0001007002010030020100300207047704744
:1001B0007047754600F02CF8AE4605006946534678
:1001C00020F00700854618B020B5FFF7DDFFBDE839
:1001D00020404FF000064FF000074FF000084FF0AE
:1001E000000BAC46ACE8C009ACE8C009ACE8C009FB
:1001F000ACE8C00921F007018D46704710B50446F0
:10020000AFF300802046BDE81040FFF7A8BF000014
:10021000004870470000002001491820ABBEFEE7EF
:10022000260002007047000080B540F27000C2F264
:100230000000016840F2B000C2F200000068884788
:1002400040F21440C4F20100016841F00101016074
:1002500080BD000080B540F27400C2F20000016869
:1002600040F2B400C2F200000068884740F2144037
:10027000C4F20100016841F00201016080BD00008C
:1002800080B540F29000C2F20000016840F2CC005C
:10029000C2F200000068884740F21440C4F2010036
:1002A000016841F00401016080BD000080B540F2AA
:1002B0009400C2F20000016840F2D000C2F20000D7
:1002C0000068884740F21440C4F20100016841F020
:1002D0000801016080BD000080B540F29800C2F2C4
:1002E0000000016840F2D400C2F2000000688847B4
:1002F00040F21440C4F20100016841F010010160B5
:1003000080BD0000417819B1012903D1002100E02E
:100310000121417040F20310C2F20000012101707E
:100320007047000040F20810C2F200000121017085
:1003300070470000B0B584B040F201130022C2F251
:10034000000301701A7040F20313C2F200038DF82B
:100350000F1040F2053140F202151A7040F20813F6
:10036000C0F60001041DA0F80120C270C2F2000511
:10037000C2F20003CDE9010120462A701A7000F094
:10038000EBFB204600F0D4FB30B940F24140C0F610
:100390000000214600F0D2FB204600F0C9FB30B936
:1003A00040F26540C0F60000214600F0C7FB204641
:1003B00000F0BEFB30B940F20D40C0F6000021460F
:1003C00000F0BCFB0DF10F0102AA01AB01200124DA
:1003D00000F0E8F801202C7004B0B0BD10B540F278
:1003E0000212C2F200021278012A1CBF002010BDC6
:1003F0000C46C17800EB81018968884740F2011002
:10040000C2F2000000782070012010BD40F20811F7
:10041000C2F200010A78012A11D1437882784FF0A4
:10042000000C9A4281F800C008BF704740F20111E9
:10043000C2F20001012283700A7080F803C0704785
:1004400040F20311C2F2000140F2011C0B78C2F22B
:10045000000C0022012B8CF8002002BF0A70012141
:10046000C170704710B540F225310446C0F6000156
:100470001420002200F02AFB0220E07010BD0000D2
:1004800070B538B340F2080E0139013A4FF00F0C45
:10049000C4F2010E11F8013F013803F003040C709F
:1004A00003F0FC034FEA840453F80E500CFA04F4F2
:1004B00025EA040443F80E400C7812F8015F4FEA75
:1004C000840453F80E6005FA04F444EA060443F881
:1004D0000E40DFD1002070BD80B590B140F2004EDB
:1004E000C4F2010E01394FF0010C00BF11F8013FB9
:1004F000DEF800200CFA03F31A430138CEF800208E
:10050000F4D1002080BD000080B50AB3012A33D0A9
:10051000022A44D1002842D040F2084EC4F2010E13
:1005200001394FF0010C00BF11F8013FDEF8002047
:100530000CFA03F31A43CEF800200A78DEF80430F0
:100540000CFA02F21A430138CEF80420ECD126E06E
:1005500028B340F2084EC4F2010E01394FF0010CED
:1005600011F8013FDEF800200CFA03F31A430138BA
:10057000CEF80020F4D112E088B140F2084EC4F267
:10058000010E01394FF0010C11F8013FDEF8042093
:100590000CFA03F31A430138CEF80420F4D10020FA
:1005A00080BD00002DE9F04F002800F0EB8040F204
:1005B000C00840F2C40940F28C0E40F2C8069B46C7
:1005C00014464FF0000CC2F20008C2F20009C2F259
:1005D000000EC2F2000600BF0D780F2D00F2C98098
:1005E000DFE805F00814212E3B4855626F7C8990A6
:1005F0009DAAB4BE156840F27007C2F2000740F22F
:10060000B00A3D601D46C2F2000AAFE0156840F234
:100610007407C2F2000740F2B40A3D600BEB8C0590
:10062000C2F2000AA2E0156840F29007C2F2000789
:1006300040F2CC0A3D600BEB8C05C2F2000A95E05B
:10064000156840F29407C2F2000740F2D00A3D60FC
:100650000BEB8C05C2F2000A88E0156840F298079F
:10066000C2F2000740F2D40A3D600BEB8C05C2F2E7
:10067000000A7BE0156840F29C07C2F2000740F2D6
:10068000D80A3D600BEB8C05C2F2000A6EE01568DB
:1006900040F2A007C2F2000740F2DC0A3D600BEB1B
:1006A0008C05C2F2000A61E0156840F2A407C2F2AC
:1006B000000740F2E00A3D600BEB8C05C2F2000A35
:1006C00054E0156840F2A807C2F2000740F2E40ABD
:1006D0003D600BEB8C05C2F2000A47E0156840F262
:1006E000AC07C2F2000740F2E80A3D600BEB8C0554
:1006F000C2F2000A3AE040F2780A04EB8C05C2F23A
:10070000000A33E0156840F27C07C2F2000740F2AD
:10071000B80A3D600BEB8C05C2F2000A26E01568B2
:1007200040F28007C2F2000740F2BC0A3D600BEBCA
:100730008C05C2F2000A19E0156840F28407C2F283
:1007400000073D600BEB8C05C2460FE0156840F2D8
:100750008807C2F200073D600BEB8C05CA4605E036
:100760001568B246CEF800500BEB8C052D68CAF820
:1007700000500CF1010C01310432013803F1040383
:100780007FF42AAF0020BDE8F08F000010B540F6DE
:10079000000EC4F2010E41F2000C1028C4F2010C4C
:1007A000724604D31F2823D810380EF580626245A4
:1007B00027D040F60043C4F201039A4238D0724574
:1007C00077D1C2B2072A4AD84FF47F7202EA80007A
:1007D0000F22DEF80030824023EA0202CEF8002029
:1007E000DEF8002001FA00F01043CEF8000010BD42
:1007F00041F20002C4F20102302838BF20386245BD
:10080000D7D1C2B2072A3FD84FF47F7202EA8000E4
:100810000F22DCF80030824023EA0202CCF80020EC
:10082000DCF8002001FA00F01043CCF8000010BD05
:10083000C2B2072A3ED84FF47F7202EA80000F222C
:10084000DEF80034824023EA0202CEF80024DEF80B
:10085000002401FA00F01043CEF8000410BD0F2A66
:1008600027D80838C0B280000F22DEF8043082405A
:1008700023EA0202CEF80420DEF8042001FA00F098
:100880001043CEF8040010BD0F2A88BF10BD0838F1
:10089000C0B280000F22DCF80430824023EA02025A
:1008A000CCF80420DCF8042001FA00F01043CCF866
:1008B000040010BD0F2AFCD808384FF60443C0B21C
:1008C000CFF6FF7380004FF00F0E5CF803400EFA76
:1008D00000F224EA02024CF803205CF8032001FA3B
:1008E00000F010434CF8030010BD000040F6000C6F
:1008F000C4F2010C102863460ED31F2803D8103809
:100900000CF5806308E040F61443C4F2010303F5DC
:100910007B73302838BF2038C0B20F2846D841F248
:100920000002C4F2010293421CD040F60042C4F21D
:10093000010293420AD0634538D1012921D0A9BBD5
:10094000012101FA00F0CCF81400704701291ED0F3
:1009500061BB012101FA00F040F61441C4F201012B
:1009600008607047012918D0002918BF704701217D
:1009700001FA00F040F61441C4F20101C1F800048C
:100980007047012101FA00F0CCF8100070470121F6
:1009900001FA00F0CCF810047047012101FA00F0D0
:1009A00040F61441C4F20101C1F8FC037047000095
:1009B0001F2809D8012101FA00F04EF20011CEF2F1
:1009C00000010860002070473B2809D82038C0B2D9
:1009D000012101FA00F04EF20011CEF20001486050
:1009E000002070474EF60C5C40F20053CEF2000C33
:1009F000C0F2FA530028CCF8003007D4120142EAC2
:100A000081114EF20042CEF2000281540020704764
:100A10001F2919D802280ED0012816D0002818BF87
:100A2000704741F21402C4F20202012013688840A8
:100A300018431060704741F21402C4F20202012010
:100A40005368884018435060704741F21402C4F262
:100A500002020120936888401843906070470000AC
:100A600041F20000C4F202008021016000214160D7
:100A7000016841F400210160016841F480310160A6
:100A800001688903FCD5416841F00101416070476C
:100A90004EF21000CEF200000021016002680260F8
:100AA00040F20710C2F20000017040F20410C2F2DE
:100AB0000000017040F20610C2F20000017040F226
:100AC0000510C2F2000001707047000070B54EF2D0
:100AD0001006CEF20006144632680D4622F00201DE
:100AE0003160316821F0010131600021B1604FF4C3
:100AF0007A714843706000F07EF940F20610C2F24D
:100B000000000121017062B600BF40F26400C2F231
:100B10000000056040F2F000C2F20000046030689E
:100B200040F002003060306840F00100306070BD7D
:100B300000780338B0FA80F0400970470A7891F8DD
:100B400001C0531C01EB820250600CF10102002035
:100B50000B704A7070470000002101807047000050
:100B600080B500F001F880BD82B041F204000021A0
:100B7000C4F202000191009150F8041C41F480314C
:100B800040F8041C50F8041C01F400310091019954
:100B900001310191009919B90199B1F5A06FF1D115
:100BA00050F8041C890354BF0021012100910099D1
:100BB000012936D142F20001C4F202010A6842F072
:100BC00010020A600A6822F003020A600A6842F012
:100BD00002020A600168016001680160016841F475
:100BE00080610160016821F47C110160016841F4B9
:100BF000E811016050F8041C41F0807140F8041CB9
:100C000050F8041C8901FBD5016821F00301016043
:100C1000016841F002010160016801F00C0108293E
:100C2000FAD102B07047000010B54EF21000CEF2BB
:100C30000000016840F2001421F480310160C2F22A
:100C40000004207801280CD100F0D5F80020207095
:100C500062B600BF40F2FC00C2F200000168013140
:100C6000016040F20510C2F20000007801280AD1AC
:100C700040F26000C2F20000016840F2EC00C2F2F3
:100C800000000068884740F20614C2F20004207891
:100C9000012810D100F0AFF80020207062B600BF2C
:100CA00040F26400C2F20000016840F2F000C2F2BB
:100CB00000000068884740F20410C2F2000000788B
:100CC00001280AD140F26800C2F20000016840F237
:100CD000F400C2F200000068884740F20714C2F234
:100CE00000042078012818BF10BD00F084F800200F
:100CF000207062B600BF40F26C00C2F200000168D2
:100D000040F2F800C2F200000068884710BD000001
:100D100080B541F20000C4F202000168002241F0F7
:100D2000010101604168CFF6FF0211404160016896
:100D30004FF6FF72CFF6F66211400160016821F4B0
:100D400080210160416821F4FE0141604FF41F01E0
:100D50008160FFF705FF4EF60850CEF200004FF01D
:100D60000061016080BD000088B0002501208DF881
:100D70001F508DF81E00FFF773FE02200221FFF7BF
:100D800047FE02200321FFF743FE00200221FFF768
:100D9000FDFCFFF77DFE0DF11F040DF11E02012089
:100DA0002146FFF76DFB012021460022FFF7ACFB37
:100DB00001202146FFF790FB062000210022FFF7CB
:100DC00011FE0620FFF7F4FD02AC204600218DF84D
:100DD0000750FFF7AFFA0DF1070500BF204629467F
:100DE000FFF7FCFA9DF807000028F7D0002001214A
:100DF000FFF77CFDF2E7EFF3108000F0010072B620
:100E000070470000140E00080000002010070000CA
:040E100028010008AD
:040000050800016D81
:00000001FF
